:020000040800F2
:10000000E80B0020150200081D0200081F0200086E
:100010002102000823020008250200080000000059
:10002000000000000000000000000000270200089F
:1000300029020008000000002B020008C522000869
:100040002F0200082F0200082F0200082F020008CC
:100050002F0200082F0200082F0200082F020008BC
:100060002F0200082F0200082F0200082F020008AC
:100070002F0200082F0200082F0200082F0200089C
:100080002F0200082F0200082F0200082F0200088C
:100090002F0200082F0200082F0200082F0200087C
:1000A0002F020008B92500082F0200082F020008BF
:1000B0002F0200082F0200082F0200082F0200085C
:1000C0002F0200082F0200082F0200082F0200084C
:1000D0002F0200082F0200082F0200082F0200083C
:1000E0002F0200082F0200082F0200082F0200082C
:1000F000052700082F0200082F0200082F02000821
:100100002F0200082F0200082F0200082F0200080B
:10011000ED2C00082F0200082F0200082F02000813
:100120002F0200082F0200082F0200082F020008EB
:1001300000F002F800F05FF80AA090E8000C82449A
:100140008344AAF10107DA4501D100F054F8AFF277
:10015000090EBAE80F0013F0010F18BFFB1A43F0A5
:100160000103184734470000544700000A444FF089
:10017000000C10F8013B13F0070408BF10F8014B06
:100180001D1108BF10F8015B641E05D010F8016B4B
:10019000641E01F8016BF9D113F0080F1EBF10F8AF
:1001A000014BAD1C0C1B09D16D1E58BF01F801CBD2
:1001B000FAD505E014F8016B01F8016B6D1EF9D555
:1001C0009142D6D37047000000230024002500266A
:1001D000103A28BF78C1FBD8520728BF30C148BFAA
:1001E0000B607047642900F07380002070471FB5D2
:1001F0001FBD10B510BD00F0C1F91146FFF7F7FFA4
:1002000002F0F8FF00F0DFF903B4FFF7F2FF03BCE0
:1002100000F0E4F90948804709480047FEE7FEE797
:10022000FEE7FEE7FEE7FEE7FEE7FEE7FEE7FEE7A6
:1002300004480549054A064B704700001923000889
:1002400031010008E8050020E80B0020E807002045
:10025000E80700200FB41CB5084B06AA7B4469468A
:100260000090059800F06DF904460020694600F002
:100270007BF920461CBC5DF814FB0000090300005C
:1002800070B5044685690068C10601D5302600E0D6
:100290002026C00707D070BDD4E901213046904721
:1002A000206A401C20626D1EF6D570BD70B50446F4
:1002B00085690078C00707D170BDD4E901212020ED
:1002C0009047206A401C20626D1EF6D570BD00006C
:1002D0002DE9F0410646002410687529314616A51F
:1002E00010D0AFF30080002802DA404213A507E0E7
:1002F00031688A0701D512A502E0490704D511A586
:10030000012401E0AFF3008000210A2206F1240756
:1003100009E0B0FBF2FCB0FBF2F302FB1C00303052
:1003200078541846491C0028F3D123462A46304603
:10033000BDE8F04100F0A7B8000000002D0000006B
:100340002B000000200000002DE9F05F89460446E4
:100350004FF0000ADFF824B1FB44C0F820A020468B
:10036000E168884700287DD0252806D0D4E90121FE
:100370009047206A401C2062F1E700255F46204636
:10038000E16888472028064607DB312E05D2B819D8
:1003900010F8200C08B10543F1E7A80701D525F0B6
:1003A0000405C4F81CA00027C4F818A02A2E09D000
:1003B000304602F0EFFE38B304EB8708303EC8F851
:1003C000186019E059F8041B204604EB870291617C
:1003D000E1688847012F064618D1E069002820DA35
:1003E00025F020051DE0D8F8180000EB800006EB92
:1003F00040003038C8F818002046E16888470646B3
:1004000002F0C8FE0028EED1012F0AD02E2E08D10E
:100410002046E16888477F1C0646022F45F02005EC
:10042000C4DBA069002803DA404245F00105A06161
:10043000E80701D025F01005A6B1A6F14100192862
:1004400002D8203645F400654A46314620462560EC
:100450004D46FFF7C7FE60B1012807D0ED1D25F01E
:10046000070000E007E000F1080978E705F104095A
:1004700075E730467AE7206ABDE8F09F284500001E
:100480007047704770472DE9F0470D4699469246F0
:10049000044600F124080168880604D5E06921F0CB
:1004A0001001216000E00120A84201DD471B00E0AF
:1004B0000027A1697A1902EB0900081AA0612078C7
:1004C000C00602D42046FFF7DBFE002608E0D4E990
:1004D00001211AF806009047206A401C761C206211
:1004E0004E45F4DB2078C0060AD52046FFF7C8FE4B
:1004F00006E0D4E9012130209047206A401C2062A8
:10050000381EA7F10107F4DC07E0D4E9012118F84F
:1005100005009047206A401C2062281EA5F10105B5
:10052000F3DC2046FFF7C2FE2078000602D5022049
:10053000BDE8F0870120FBE701694A1C02610878E9
:10054000704700B58FB0CDE9013100210591054913
:100550007944CDE9031011466846FFF7F5FE0FB068
:1005600000BD0000E5FFFFFF0A6802F8010B0A600A
:100570007047000000487047880500207546FFF767
:10058000F9FFAE4605006946534620F00700854650
:1005900018B020B5FFF74CFEBDE820404FF0000634
:1005A0004FF000074FF000084FF0000B21F007015B
:1005B000AC46ACE8C009ACE8C009ACE8C009ACE89E
:1005C000C0098D46704710B50446AFF30080204641
:1005D000BDE81040FFF718BE704700000149182021
:1005E000ABBEFEE72600020038B50446A6480078F8
:1005F000012815D10121A54800F070F9A34800F0A9
:10060000B5F900BFA14800F07EF90028FAD19F4853
:1006100000F0B1F900BF9D4800F06BF90028FAD155
:10062000102C75D2DFE804F0081A2C3E5062758752
:1006300099ABBDCFE1F6F4F30121042001F0FEFBFC
:100640000120ADF8000000208DF8030069469048B5
:1006500000F0C6FA00208C49087012E10121042044
:1006600001F0ECFB0220ADF8000000208DF8030043
:100670006946874800F0B4FA00208349087000E119
:100680000121042001F0DAFB0420ADF80000002075
:100690008DF8030069467E4800F0A2FA00207A49EE
:1006A0000870EEE00121042001F0C8FB0820ADF83D
:1006B000000000208DF803006946754800F090FAAC
:1006C000002071490870DCE00121042001F0B6FB34
:1006D0001020ADF8000000208DF8030069466C483A
:1006E00000F07EFA002068490870CAE00121042069
:1006F00001F0A4FB2020ADF8000000208DF80300DD
:100700006946634800F06CFA00205F490870B8E061
:10071000B6E00121042001F091FB4020ADF800007B
:1007200000208DF803006946594800F059FA00206E
:1007300055490870A5E00121042001F07FFB8020CD
:10074000ADF8000000208DF803006946504800F025
:1007500047FA00204C49087093E00121082001F07D
:100760006DFB0120ADF8000000208DF80300694604
:10077000484800F035FA00204349087081E0012123
:10078000082001F05BFB0220ADF8000000208DF88E
:10079000030069463F4800F023FA00203A490870F8
:1007A0006FE00121102001F049FB0120ADF80000AD
:1007B00000208DF803006946374800F011FA002048
:1007C000314908705DE00121102001F037FB022063
:1007D000ADF8000000208DF8030069462E4800F0B7
:1007E000FFF90020284908704BE00121102001F09A
:1007F00025FB0420ADF8000000208DF803006946B9
:10080000254800F0EDF900201F49087039E025E087
:1008100012E0FFE70121102001F010FB0820ADF8E5
:10082000000000208DF8030069461B4800F0D8F94D
:1008300000201549087024E00121102001F0FEFA83
:100840001020ADF8000000208DF803006946124822
:1008500000F0C6F900200C49087012E001211020B8
:1008600001F0ECFA2020ADF8000000208DF8030024
:100870006946094800F0B4F900200349087000E017
:1008800000BF00BF38BD0000080100200024014067
:1008900000080140000C01400010014000B585B087
:1008A0000121480201F0CAFA4FF4004001F0AAFA0F
:1008B000002000908DF804008DF805004FF46020B2
:1008C00002900020039001208DF810006946024834
:1008D00000F024F805B000BD0024014021B1826879
:1008E00042F00102826003E0826822F0010282602D
:1008F0007047014600208A6802F004020AB1012014
:1009000000E000207047014600208A6802F00802DB
:100910000AB1012000E000207047000030B5024617
:100920000020002350680F4C20400D790C6844EAE9
:1009300005242043506090680B4C2040D1E90254BC
:100940002C434D7944EA450420439060D06A20F45A
:1009500070000C7C641EE4B2234340EA0350D06272
:1009600030BD0000FFFEF0FFFDF7F1FF816841F0B0
:10097000080181607047816841F00401816070471F
:1009800000200CE0002106E00022064B03EBC01320
:100990005A544A1CD1B28029F6DB421CD0B2082836
:1009A000F0DB7047880100202DE9F04304460D4636
:1009B00016461F46E819C7B23019C6B2A9460FE05D
:1009C000A04607E04946404600F00EF808F1010055
:1009D00000F0FF08B045F5DB09F1010000F0FF0968
:1009E000B945EDDBBDE8F08370B504460D462946F8
:1009F000204600F04FFD0F494878C11700EB5171B8
:100A0000CB100C494878C11700EB5171C910A0EB0D
:100A1000C101CEB2084800EBC31006490978405C1A
:100A20000121B1408843044901EBC311014A127806
:100A3000885470BD840100208801002000B5034661
:100A400003E04FF47A7000F005F8181EA3F10103DB
:100A5000F7D100BD00214FF0E022116100EBC00191
:100A60005161002191610121116100BF4FF0E0212E
:100A7000096901F480310029F8D000214FF0E0220B
:100A80001161704700B587B00121082001F0C6F957
:100A90000121042001F0D2F948208DF81B00032029
:100AA000ADF818008DF81A0006A91C4800F098F857
:100AB0000020ADF812004FF6FF70ADF810000020D6
:100AC000ADF80C0003A9164802F05CF8684601F086
:100AD000B3FE0020ADF800000F20ADF80800694615
:100AE0000F4801F053FE0420ADF800000F20ADF8D0
:100AF000080069460A4801F049FE00231A4603210E
:100B0000074801F01EFE4FF6FF71054802F001F89C
:100B10000121034801F009FE07B000BD00080140B3
:100B2000000C004010B5054801F02CFE04B2002175
:100B3000024801F0F9FF204610BD00000008004007
:100B400000B587B00121042001F068F901210820D7
:100B500001F074F948208DF81B00C020ADF8180092
:100B600003208DF81A0006A91B4800F039F8002070
:100B7000ADF81200ADF80E004FF6FF70ADF81000A2
:100B80000020ADF80C008DF8140003A9134801F003
:100B9000F9FF684601F050FE0020ADF800000F207C
:100BA000ADF8080069460D4801F0F0FD0420ADF8ED
:100BB00000000F20ADF808006946084801F0E6FD86
:100BC00000231A460321054801F0BBFD012103481B
:100BD00001F0ABFD07B000BD000C01400008004073
:100BE0002DE9F041024600250026002000230024C4
:100BF000002791F803C00CF00F0591F803C00CF02A
:100C0000100CBCF1000F03D091F802C04CEA0505AE
:100C100091F800C0BCF1000F31D0146800202BE027
:100C20004FF0010C0CFA00F3B1F800C00CEA030617
:100C30009E4220D183004FF00F0C0CFA03F7BC4307
:100C400005FA03FC4CEA040491F803C0BCF1280F38
:100C500006D14FF0010C0CFA00FCC2F814C00AE0F7
:100C600091F803C0BCF1480F05D14FF0010C0CFA0C
:100C700000FCC2F810C0401C0828D1D31460B1F8A1
:100C800000C0BCF1FF0F34DD546800202EE000F1FD
:100C9000080C4FF0010808FA0CF3B1F800C00CEA98
:100CA00003069E4221D183004FF00F0C0CFA03F78C
:100CB000BC4305FA03FC4CEA040491F803C0BCF100
:100CC000280F05D100F1080C08FA0CF8C2F81480BE
:100CD00091F803C0BCF1480F07D100F1080C4FF0A8
:100CE000010808FA0CF8C2F81080401C0828CED37E
:100CF0005460BDE8F0810000F0B50A4600230024EE
:100D00000021002500F00046B6F1004F02D11D4E33
:100D1000F16901E01B4E7168C0F3034583B200F432
:100D20004016B6F5401F08D121F07061154E766867
:100D300026F07066134F7E6012E000F48016B6F560
:100D4000801F06D1032606FA05F4A14341F0706125
:100D500006E0460D360103FA06F6B14341F0706134
:100D600022B1460D360103FA06F6314300F0004683
:100D7000B6F1004F02D1034EF16101E0014E716006
:100D8000F0BD0000000001400246002093680B40C7
:100D90000BB1012000E00020704741617047016104
:100DA0007047000010B508210748FFF7EDFF012844
:100DB00004D108210448FFF7F0FF03E008210248AE
:100DC000FFF7EDFF10BD00000008014010B5102135
:100DD0000748FFF7D9FF012804D110210448FFF785
:100DE000DCFF03E010210248FFF7D9FF10BD00002F
:100DF0000008014008B50121042001F01FF810206F
:100E00008DF803007820ADF8000003208DF8020073
:100E100069460448FFF7E4FE78210248FFF7BFFF68
:100E200008BD00000008014070B504460D4605F1FC
:100E3000B001C8B200F05EFB102101EB141000F00D
:100E400059FB04F00F0000F055FB70BD08B50121FF
:100E5000102000F0F3FF41F20200ADF80000102076
:100E60008DF8030003208DF8020069460548FFF75E
:100E7000B7FE642000F062FF0121084600F008FE82
:100E800008BD00000010014008B50121082000F055
:100E9000D5FF2820ADF8000010208DF803000320B6
:100EA0008DF8020069460548FFF79AFE642000F0BD
:100EB00089FD0021032000F0BFFB08BD000C0140AC
:100EC00070B505460C46FFF76DFF012D2CD1002CA7
:100ED0000CDA02212B48FFF762FF29032948FFF7AC
:100EE0005CFF6142012000F067FF4AE0002C0DDD4D
:100EF00002212448FFF751FF4FF480512148FFF7AA
:100F00004EFF2146012000F057FF3AE002211D4824
:100F1000FFF743FF4FF480511A48FFF73EFF0021CF
:100F2000012000F049FF2CE0022D2AD1002C0CDA20
:100F300020211548FFF733FF08211348FFF72DFF45
:100F40006142032000F07DFD1BE0002C0CDD202120
:100F50000D48FFF722FF08210B48FFF720FF21462D
:100F6000032000F06EFD0CE008210748FFF715FF95
:100F70004FF400710448FFF710FF0021032000F038
:100F800060FD70BD00100140000C014008B54FF439
:100F9000C06000F02BF919208DF8000000208DF8BA
:100FA00001008DF8020001208DF80300684600F072
:100FB000E5F84FF4C06000F019F91C208DF800002E
:100FC00000208DF8010001208DF802008DF803004B
:100FD000684600F0D3F84FF4C06000F007F91D2018
:100FE0008DF8000000208DF8010002208DF802002D
:100FF00001208DF80300684600F0C0F84FF4C0608F
:1010000000F0F4F81E208DF8000000208DF801009B
:1010100003208DF8020001208DF80300684600F0DF
:10102000ADF84FF4C06000F0E1F832208DF8000018
:1010300000208DF8010004208DF8020001208DF8B9
:101040000300684600F09AF84FF4C06000F0CEF854
:1010500036208DF8000000208DF8010005208DF865
:10106000020001208DF80300684600F087F84FF475
:10107000C06000F0BBF837208DF8000000208DF82C
:10108000010006208DF8020001208DF8030068465B
:1010900000F074F84FF4C06000F0A8F82C208DF830
:1010A000000000208DF8010007208DF802000120CB
:1010B0008DF80300684600F061F84FF4C06000F05E
:1010C00095F825208DF8000001208DF801000320FF
:1010D0008DF8020001208DF80300684600F04EF8FC
:1010E0004FF4C06000F082F826208DF80000012047
:1010F0008DF8010003208DF8020001208DF8030017
:10110000684600F03BF84FF4C06000F06FF827200D
:101110008DF8000001208DF8010004208DF80200F8
:1011200001208DF80300684600F028F84FF4C060F5
:1011300000F05CF834208DF8000001208DF80100EB
:1011400000208DF8020001208DF80300684600F0B1
:1011500015F84FF4C06000F049F835208DF8000014
:1011600001208DF8010006208DF8020001208DF885
:101170000300684600F002F808BD000070B50021C9
:1011800000230F22C47804B3154C246804F4E064EF
:10119000C4F5E064210AC1F10403CA40447804FAAA
:1011A00003F184781440214309010E4C0678A155BF
:1011B000047804F01F050124AC4005786D11AD00E2
:1011C00005F1E025C5F8004109E0047804F01F05A9
:1011D0000124AC40044D0678761145F8264070BDD8
:1011E0000CED00E000E400E080E100E00249014392
:1011F000024A1160704700000000FA050CED00E0A3
:1012000010B5FFF7BDFB00F0CBFF10BD2DE9F04797
:1012100081468A4615461E465146484600F03AF930
:1012200010480078104908700E484078487025B181
:10123000304601F091FF044603E0304601F09BFF89
:1012400004464FF0080804EB44004006070E064A27
:101250005178107843463A4600F06AFF2046BDE8D0
:10126000F087000084010020860100202DE9FC4168
:1012700005460E4617461C4622460BA16846FEF759
:10128000E9FF804608EB48004006020E082331467D
:101290002846FFF789FB6B463A4631462846FFF75A
:1012A000B5FFBDE8FC810000253036640000000079
:1012B00010B500F077F84FF480413948FFF76FFD23
:1012C0000A20FFF7BBFB4FF480413548FFF765FD6F
:1012D0000A20FFF7B3FB4FF480413148FFF75FFD71
:1012E0000A20FFF7ABFBAE2000F004F9022000F06B
:1012F00001F9102000F0FEF8402000F0FBF88120FA
:1013000000F0F8F8CF2000F0F5F8A12000F0F2F896
:10131000C82000F0EFF8A62000F0ECF8A82000F0BC
:10132000E9F83F2000F0E6F8812000F0E3F8FF2024
:1013300000F0E0F8D32000F0DDF8002000F0DAF84B
:10134000D52000F0D7F8802000F0D4F8D92000F0A4
:10135000D1F8F12000F0CEF8DA2000F0CBF812201E
:1013600000F0C8F8DB2000F0C5F8402000F0C2F81B
:10137000202000F0BFF8022000F0BCF88D2000F023
:10138000B9F8142000F0B6F8A42000F0B3F8A620B5
:1013900000F0B0F8AF2000F0ADF8FFF731FF10BD5E
:1013A000000C014008B50121082000F047FD012193
:1013B000082000F043FD0121082000F03FFD01213D
:1013C000082000F03BFD0121102000F037FD4FF414
:1013D0008050ADF8000003208DF8020010208DF839
:1013E000030069462948FFF7FBFB4FF4805127486B
:1013F000FFF7D5FC4FF40050ADF8000003208DF846
:10140000020010208DF8030069462048FFF7E8FB32
:101410004FF400511D48FFF7C2FC4FF48040ADF877
:10142000000003208DF8020010208DF803006946AB
:101430001648FFF7D5FB4FF480411448FFF7AFFC87
:101440004FF40040ADF8000003208DF8020010209A
:101450008DF8030069460D48FFF7C2FB4FF40041C9
:101460000A48FFF79CFC4020ADF8000003208DF8EF
:10147000020010208DF8030069460548FFF7B0FB15
:1014800040210348FFF78BFC08BD0000000C014021
:1014900000100140402900DB0021802800DB0020F3
:1014A000014A5170107070478401002070B50446E5
:1014B000002518E040210D48FFF76FFC04F0800084
:1014C00028B14FF400410A48FFF769FC04E04FF4EB
:1014D00000410748FFF761FC40210448FFF75FFC2B
:1014E0006006040E6D1C082DE4D370BD0010014091
:1014F000000C014010B504464FF480510848FFF736
:101500004CFC4FF400510648FFF747FC2046FFF71C
:10151000CDFF4FF480510248FFF741FC10BD0000A1
:10152000000C014010B504464FF480510848FFF705
:1015300034FC4FF400510648FFF731FC2046FFF71A
:10154000B5FF4FF480510248FFF729FC10BD0000A1
:10155000000C014010B504468120FFF7CBFF204668
:10156000FFF7C8FF10BD2DE9F0470446002500260F
:101570000027A08AE08220886188401A00B2A082F9
:10158000B4F9140002F0B6F88046A16802F0FEF843
:101590000546B4F91410B4F91620881A02F0AAF816
:1015A0008046216902F0F2F807460021A06802F0A7
:1015B00051F805D0208BA18A084400B2208301E0B5
:1015C00000202083B4F9180002F094F88046E16806
:1015D00002F0DCF806463146284601F0CDFF814690
:1015E000394601F0C9FF804602F068F800B2A080D9
:1015F000B4F91800B4F91A10884201DD608B208319
:10160000B4F91800B4F91C10884201DAA08B2083C9
:10161000B4F90400B4F91E10884201DDE08BA0800B
:10162000B4F90400B4F92010884201DA208CA080BB
:10163000B4F90400BDE8F08738B504460D4635B16D
:10164000012D68D0022D77D0032D76D141E1012CF8
:1016500006D0022C1AD0032C2ED0042C58D141E0F5
:101660000121042000F0EAFB0120ADF80000032076
:101670008DF8020018208DF803006946CB48FFF76B
:10168000AFFA0821C80601F035F942E00121042033
:1016900000F0D4FB0220ADF8000003208DF802001A
:1016A00018208DF803006946C048FFF799FA082111
:1016B000C80601F07BF92CE00121042000F0BEFBFC
:1016C0000420ADF8000003208DF8020018208DF8EA
:1016D00003006946B548FFF783FA0821C80601F000
:1016E000C3F916E00121042000F0A8FB0820ADF8A2
:1016F000000003208DF8020018208DF803006946D1
:10170000AA48FFF76DFA0821C80601F0F5F900E0D4
:1017100000BF00BF48E10121A548FFF7EDFA012114
:10172000A448FFF7E9FA012C08D0022C1DD0032CA5
:1017300031D0042C5BD144E05CE034E10121042091
:1017400000F07CFB4FF40040ADF8000003208DF862
:10175000020018208DF8030069469448FFF740FA0C
:101760000821C80601F0C6F842E00121082000F077
:1017700065FB0820ADF8000003208DF8020018205A
:101780008DF8030069468C48FFF72AFA0821C8063D
:1017900001F00CF92CE00121042000F04FFB0420A3
:1017A000ADF8000003208DF8020018208DF803002A
:1017B00069467E48FFF714FA0821C80601F054F97B
:1017C00016E00121042000F039FB0820ADF80000EC
:1017D00003208DF8020018208DF803006946734835
:1017E000FFF7FEF90821C80601F086F900E000BF06
:1017F00000BFD9E001217148FFF77EFA01216D4851
:10180000FFF77AFA012C06D0022C1BD0032C2FD024
:10181000042C5BD143E00121042000F00FFB4FF4C6
:101820000040ADF8000003208DF8020018208DF86C
:10183000030069465D48FFF7D3F90821C80601F0A7
:1018400059F844E00121082000F0F8FA0820ADF82A
:10185000000003208DF8020018208DF8030069466F
:101860005548FFF7BDF90821C80601F09FF82EE0A2
:101870000121082000F0E2FA4FF48060ADF800008A
:1018800003208DF8020018208DF8030069464A48AD
:10189000FFF7A6F90821C80601F0E6F817E00121D4
:1018A000082000F0CBFA4FF40060ADF800000320F0
:1018B0008DF8020018208DF8030069463E48FFF7B6
:1018C0008FF90821C80601F017F900E000BF00BF3A
:1018D0006AE001213A48FFF70FFA012C06D0022CEA
:1018E0001AD0032C2ED0042C5AD142E0012104201E
:1018F00000F0A4FA0120ADF8000003208DF80200EA
:1019000018208DF8030069462848FFF769F9082177
:10191000C80600F0EFFF44E00121042000F08EFA39
:101920000220ADF8000003208DF8020018208DF889
:10193000030069461D48FFF753F90821C80601F066
:1019400035F82EE00121082000F078FA4FF480608D
:10195000ADF8000003208DF8020018208DF8030078
:1019600069461548FFF73CF90821C80601F07CF8E4
:1019700017E00121082000F061FA4FF40060ADF893
:10198000000003208DF8020018208DF8030069463E
:101990000948FFF725F90821C80601F0ADF800E075
:1019A00000BF00BF00E000BF00BF38BD000801401D
:1019B0000001180000023000000C01400003180074
:1019C0000002180010B588B004460121084600F056
:1019D00035FA0121084600F021FAA0B2ADF818004E
:1019E0004720ADF814000020ADF81A00ADF816003D
:1019F0008DF81C0005A94FF0804001F0C3F860206D
:101A0000ADF804000020ADF80C000120ADF8060090
:101A100001A9800700F022FF01A94FF0804000F0EB
:101A200073FF01A94FF0804000F0CEFF01A94FF0F5
:101A3000804001F023F80121880700F076FE08B00D
:101A400010BD70B505460C46012D06D0022D0AD0FA
:101A5000032D0ED0042D18D111E0A1B24FF080401B
:101A600001F059F812E0A1B24FF0804001F055F8B2
:101A70000CE0A1B24FF0804001F051F806E0A1B2B5
:101A80004FF0804001F04DF800E000BF00BF70BD96
:101A900038B504460D4625B1012D66D0022D71D111
:101AA000D0E0012C06D0022C1AD0032C2ED0042C0E
:101AB00058D141E00121042000F0C0F94020ADF8E8
:101AC000000003208DF8020018208DF803006946FD
:101AD0009348FFF785F80821924800F00BFF42E099
:101AE0000121042000F0AAF98020ADF800000320B5
:101AF0008DF8020018208DF8030069468848FFF72A
:101B00006FF80821874800F051FF2CE001210820E0
:101B100000F094F90120ADF8000003208DF80200D8
:101B200018208DF8030069467F48FFF759F808210F
:101B30007C4800F099FF16E00121082000F07EF9B2
:101B40000220ADF8000003208DF8020018208DF867
:101B5000030069467448FFF743F80821714800F014
:101B6000CBFF00E000BF00BFD7E001216F48FFF7C7
:101B7000C3F8012C07D0022C1FD0032C33D0042C27
:101B80005DD146E0C8E00121082000F057F90121AD
:101B90006748FFF7B1F81020ADF8000003208DF87A
:101BA000020018208DF8030069465F48FFF718F817
:101BB00008215C4800F09EFE42E00121082000F070
:101BC0003DF92020ADF8000003208DF80200182018
:101BD0008DF8030069465448FFF702F80821514880
:101BE00000F0E4FE2CE00121082000F027F901209C
:101BF000ADF8000003208DF8020018208DF80300D6
:101C000069464948FEF7ECFF0821464800F02CFFE2
:101C100016E00121082000F011F90220ADF80000C3
:101C200003208DF8020018208DF8030069463E4815
:101C3000FEF7D6FF08213B4800F05EFF00E000BF42
:101C400000BF6AE001213B48FFF756F8012C06D09F
:101C5000022C1AD0032C2ED0042C5AD142E00121A0
:101C6000102000F0EBF84020ADF8000003208DF8C4
:101C7000020018208DF8030069462F48FEF7B0FFD8
:101C80000821284800F036FE44E00121102000F031
:101C9000D5F88020ADF8000003208DF80200182050
:101CA0008DF8030069462448FEF79AFF08211D4875
:101CB00000F07CFE2EE00121102000F0BFF84FF470
:101CC0008070ADF8000003208DF8020018208DF818
:101CD000030069461848FEF783FF0821114800F009
:101CE000C3FE17E00121102000F0A8F84FF40070A7
:101CF000ADF8000003208DF8020018208DF80300D5
:101D000069460D48FEF76CFF0821064800F0F4FE16
:101D100000E000BF00BF00E000BF00BF38BD000012
:101D20000008014000040040000C014000081A00B7
:101D300000023000000C1A000010014010B588B0FD
:101D400004460121084600F079F80121022000F044
:101D500065F8A0B2ADF818004720ADF814000020D7
:101D6000ADF81A00ADF816008DF81C0005A9114851
:101D700000F008FF6020ADF804000020ADF80C0072
:101D80000120ADF8060001A90A4800F067FD01A98D
:101D9000084800F0B9FD01A9064800F015FE01A9A8
:101DA000044800F06BFE0121024800F0BEFC08B0C0
:101DB00010BD00000004004070B505460C46012D22
:101DC00006D0022D09D0032D0CD0042D14D10EE025
:101DD000A1B20B4800F09FFE0FE0A1B2084800F04E
:101DE0009CFE0AE0A1B2064800F099FE05E0A1B20F
:101DF000034800F096FE00E000BF00BF70BD000089
:101E00000004004001460020034A506820F440408E
:101E100008435060704700000010024029B1064A94
:101E2000D2690243044BDA6104E0034AD269824377
:101E3000014BDA61704700000010024029B1064AE8
:101E400092690243044B9A6104E0034A9269824317
:101E5000014B9A6170470000001002400F48006873
:101E600040F001000D490860084640680C490840F0
:101E70000A494860084600680A490840074908605E
:101E80000846006820F4802008600846406820F476
:101E9000FE0048604FF41F00886070470010024049
:101EA0000000FFF8FFFFF6FE30B5002100220024FD
:101EB00000232D4D6D6805F00C0121B1042905D0DA
:101EC000082923D105E0294D056022E0274D056052
:101ED0001FE0254D6D6805F47012234D6D6805F403
:101EE0008034022505EB92421CB9214D5543056013
:101EF0000BE01D4D6D6805F400351DB11C4D5543BB
:101F0000056002E0194D5543056002E0174D05607C
:101F100000BF00BF144D6D6805F0F0010909154DB3
:101F20006B5C0568DD4045600F4D6D6805F4E06150
:101F3000090A104D6B5C4568DD4085600A4D6D688F
:101F400005F46051C90A0B4D6B5C4568DD40C56006
:101F5000054D6D6805F44041890B074D6B5CC56804
:101F6000B5FBF3F5056130BD0010024000127A00A8
:101F700000093D00000000201000002010B50146BF
:101F80000022002300204A11012A02D1094C2368B3
:101F900006E0022A02D1074C236A01E0054C636A7D
:101FA00001F01F02012494401C400CB1012000E00C
:101FB000002010BD001002400248406800F00C00F4
:101FC000704700000010024001460020034A50689C
:101FD00020F0F000084350607047000000100240FD
:101FE0001149096821F480310F4A116011460968CE
:101FF00021F480211160B0F5803F03D0B0F5802F2F
:102000000ED106E00849096841F48031064A1160A2
:1020100007E00549096841F4A021034A116000E086
:1020200000BF00BF704700000010024010B5FFF76E
:1020300015FF4FF48030FFF7D3FF00F05DF8012863
:1020400020D10020FFF7C0FF4FF4806000F01CF8A3
:10205000002000F025F84FF4E0114FF4803000F03C
:1020600031F8012000F028F800BF3920FFF786FF83
:102070000028FAD0022000F033F800BFFFF79CFFE1
:102080000828FBD110BD000001460020034A50681B
:1020900020F4E060084350607047000000100240E8
:1020A00001460020034A506820F4605040EAC10015
:1020B00050607047001002400149086670470000F8
:1020C0000000424202460020044B586820F47C1075
:1020D00042EA01031843014B586070470010024068
:1020E00001460020034A506820F003000843506076
:1020F000704700000010024038B500200090002416
:10210000002500BF3120FFF739FF05460098401C2D
:1021100000900098B0F5A06F01D0002DF2D03120D2
:10212000FFF72CFF08B1012400E00024204638BD51
:102130002DE9FC5F06460C4691469A462046E1177B
:1021400004EB5171C1F3C70BB04604EB0A01481E02
:10215000C11700EB5171C1F3C701019106EB0900F2
:10216000401EC0B200905D4612E029464046FEF790
:102170005BFE474607E0094901EBC511C85DFFF763
:10218000D1F9781CC7B200988742F4DD681CC5B24B
:1021900001988542E9DDBDE8FC9F00008801002030
:1021A00070B500210846FEF73FFE002411E000252F
:1021B0000BE021462846FEF737FE074901EBC41124
:1021C000485DFFF7AFF9681CC5B2802DF1DB601CDC
:1021D000C4B2082CEBDB70BD8801002010B500F004
:1021E00001F810BD0CB50020019000903348006844
:1021F00040F480303149086000BF3048006800F486
:10220000003000900198401C0190009818B9019886
:10221000B0F5A06FF1D12948006800F4003010B18A
:102220000120009001E0002000900098012843D197
:102230002348006840F01000214908600846006803
:1022400020F0030008600846006840F002000860C3
:102250001A4840681949486008464068486008467E
:10226000406840F4806048600846406820F47C1074
:1022700048600846406840F4E81048600846006836
:1022800040F08070086000BF0C48006800F00070EB
:102290000028F9D00948406820F003000749486049
:1022A0000846406840F00200486000BF03484068AC
:1022B00000F00C000828F9D10CBD0000001002400D
:1022C0000020024002480068401C01490860704735
:1022D0000401002010B5FFF7A9FEFEF757FEFEF738
:1022E000DDFA0D20FEF780F9FEF784FD00F09CFC7E
:1022F000FEF7DEFF7F20FFF72DF9FEF781FF00F0EC
:1023000079FDFEF7A3FDFEF7BFFDFEF7BBFBFEF771
:1023100017FC00F0FBFF10BD10B51348006840F03B
:1023200001001149086008464068104908400E49FC
:102330004860084600680E4908400B490860084696
:10234000006820F4802008600846406820F4FE0001
:1023500048604FF41F008860FFF740FF4FF00060B7
:102360000449086010BD0000001002400000FFF8A2
:10237000FFFFF6FE08ED00E0F0B50C461546002222
:102380000021068C4FF6FE773E400684028B018CBE
:102390004FF60C7632407E1C06EA03162E4332437B
:1023A000104EB0420ED0104EB0420BD0B0F1804F64
:1023B00008D00E4EB04205D00D4EB04202D00D4EA8
:1023C000B04206D14FF6FD76314044F0010631436C
:1023D00005E04FF6F576314044F0010631430283C3
:1023E0000184F0BD002C0140003401400004004095
:1023F00000080040000C0040F0B50C4615460022D5
:1024000000210026078C4FF6EF7C07EA0C070784B3
:10241000028B018C4FF6FF7707EA041640F6FF4760
:102420003A404FF6FF7707EA03373A434FF6FF7714
:1024300007EA05273A43114FB8420ED0104FB84271
:102440000BD0B0F1804F08D00E4FB84205D00E4FE0
:10245000B84202D00D4FB84206D14FF6DF7739406F
:1024600046F01007394305E04FF65F77394044F0F6
:102470001007394302830184F0BD0000002C0140A5
:10248000003401400004004000080040000C0040FF
:10249000F0B50C461546002200210026078C4FF6A9
:1024A000FF6C07EA0C070784828B018C4FF6FF77DD
:1024B00007EA04264FF60C773A404FF6FF7707EA13
:1024C00003172F433A43114FB8420ED0104FB84272
:1024D0000BD0B0F1804F08D00E4FB84205D00E4F50
:1024E000B84202D00D4FB84206D14FF6FF573940DF
:1024F00046F48077394305E04FF2FF57394044F402
:102500008077394382830184F0BD0000002C0140B4
:10251000003401400004004000080040000C00406E
:10252000F0B50C461546002200210026078C4EF619
:10253000FF7C07EA0C070784828B018C4FF6FF773C
:1025400007EA043640F6FF473A404FF6FF7707EABE
:1025500005273A434FF6FF7707EA03373A43114F0F
:10256000B8420ED0104FB8420BD0B0F1804F08D017
:102570000E4FB84205D00E4FB84202D00D4FB842B0
:1025800006D14DF6FF77394046F48057394305E0D0
:1025900047F6FF57394044F480573943828301841A
:1025A000F0BD0000002C0140003401400004004058
:1025B00000080040000C004070B5FEF707FC012148
:1025C0002F4800F0AFF82F4801682F48006801F04D
:1025D000DBF92E4908602E492C48006801F0A2F969
:1025E00007D22C492948006801F0CEF92749086034
:1025F0000CE029492548006801F094F806D22549E5
:102600002248006800F0B8FF204908601F480168B0
:102610002248006800F0B0FF204908601D491F48AB
:10262000006801F07FF906D21A491C48006801F0E1
:10263000ABF91A4908601A491848006801F072F8A5
:1026400006D214491548006800F096FF1349086047
:102650001248006800F064FF21F0004104460022A7
:10266000104B00F027FF05D80F480C4908600020E8
:1026700005490860044800680249086070BD000010
:10268000002C0140E0000020B0000020E400002009
:10269000000034430000B443000034C3E8000020CD
:1026A0000000B4C3008056400000B4420EB50121C2
:1026B0004803FFF7C3FB2320ADF800000020ADF86E
:1026C0000600ADF802008DF808006946084800F0E1
:1026D00059FA0121064800F025F801221146044864
:1026E00000F0B3F80021024800F01FF80EBD000012
:1026F000003401400121C1EB4001014A11807047C3
:102700002C34014010B50121034800F00BF80349B7
:10271000034800F097FA10BD00340140800000200B
:102720005C000020CA430282704721B1028842F057
:102730000102028004E002884FF6FE731A40028014
:102740007047F0B50C4615461E46002100220023B6
:102750000189028B038C4FF6F877394021434FF6FD
:10276000FC473A4040F201173A434FF6DD773B40D1
:102770004FF6FF7707EA06172F433B430181028399
:102780000384F0BD0146888C7047000070B5054693
:102790000C46244885420ED0234885420BD0B5F123
:1027A000804F08D02148854205D02148854202D07B
:1027B0002048854200D100E000BF208850B923891D
:1027C000A28861882846FFF7D7FDE188284600F0F7
:1027D000ADF925E0208804280AD12389A2886188E0
:1027E0002846FFF709FEE188284600F0A8F917E01F
:1027F000208808280AD12389A28861882846FFF703
:1028000047FEE188284600F0A7F909E02389A2885D
:1028100061882846FFF784FEE188284600F0A5F984
:1028200070BD0000002C0140003401400004004055
:1028300000080040000C004000210180418001217F
:1028400081800021C180018170471AB183890B43C7
:10285000838102E083898B438381704770B50024B4
:1028600000220023058C4FF6FE7635400584028C4D
:102870008388048B4FF68F752C40B51E2C400D8835
:102880002C43751E2A400D892A434D882A43144D36
:10289000A8420BD0134DA84208D0134DA84205D032
:1028A000124DA84202D0124DA84213D14FF6F7752F
:1028B0002A404D892A434FF6FB752A408D882A43CA
:1028C0004FF6FF652B404FF6FF552B408D892B436C
:1028D000CD892B4383800483CD888586028470BD97
:1028E000002C014000340140004001400044014000
:1028F000004801400A460021018B4FF6F77319404A
:10290000114301837047000070B5002400220023AA
:10291000058C4FF6EF7635400584028C8388048B56
:1029200048F6FF752C404FF6FF452C400D884FF6BA
:10293000FF7606EA05252C434FF6DF752A400D8900
:1029400006EA05152A434D8806EA05152A43154D62
:10295000A84202D0144DA8421DD14FF67F752A40DF
:102960004D894FF6FF7606EA05152A434FF6BF75E7
:102970002A408D8806EA05152A434FF6FF352B407D
:102980004FF2FF752B408D8906EA85052B43CD89D3
:1029900006EA85052B4383800483CD88058702845E
:1029A00070BD0000002C0140003401400A460021A7
:1029B000018B4FF2FF7319404FF6FF7303EA0223B6
:1029C000194301837047000070B5002400220023E2
:1029D000058C4FF6FF6635400584028C8388848B16
:1029E0004FF68F752C404FF6FC752C400D882C430C
:1029F0004FF6FF552A400D894FF6FF7606EA05256A
:102A00002A434D8806EA05252A43154DA84202D0DF
:102A1000144DA8421DD14FF2FF752A404D894FF643
:102A2000FF7606EA05252A434FF6FF352A408D88B2
:102A300006EA05252A434EF6FF752B404DF6FF7535
:102A40002B408D8906EA05152B43CD8906EA05152D
:102A50002B4383808483CD888587028470BD0000EA
:102A6000002C0140003401400A460021818B4FF6C2
:102A7000F7731940114381837047000070B500223D
:102A800000230024058C4EF6FF7635400584038C28
:102A90008488828B48F6FF752A404FF6FF452A400E
:102AA0000D884FF6FF7606EA05252A434DF6FF7599
:102AB0002B400D8906EA05352B434D8806EA05357E
:102AC0002B430B4DA84202D00A4DA84208D14BF629
:102AD000FF752C408D894FF6FF7606EA85152C434D
:102AE00084808283CD88A0F84050038470BD0000AC
:102AF000002C0140003401400A460021818B4FF236
:102B0000FF7319404FF6FF7303EA022319438183D1
:102B1000704781857047818670470187704781873C
:102B20007047A0F84010704781847047028B4FF6C1
:102B3000F3731A400283028B0A4302837047028BAD
:102B40004FF2FF331A400283028B4FF6FF7303EA02
:102B500001231A4302837047828B4FF6F3731A40A6
:102B60008283828B0A4382837047828B4FF2FF33CA
:102B70001A408283828B4FF6FF7303EA01231A43C4
:102B800082837047002202881D4B98420ED01D4B55
:102B900098420BD0B0F1804F08D01B4B984205D023
:102BA0001A4B984202D01A4B984204D14FF68F73B9
:102BB0001A404B881A43174B984207D0164B98423D
:102BC00004D04FF6FF431A40CB881A4302808B880B
:102BD00083850B8803850A4B98420BD0094B98429A
:102BE00008D00E4B984205D00D4B984202D00D4BA9
:102BF000984201D10B7A038601238382704700003B
:102C0000002C014000340140000400400008004056
:102C1000000C004000100040001400400040014043
:102C2000004401400048014010B5FFF73FFD42F26B
:102C30001070FFF75FFD01210148FFF776FD10BD21
:102C4000003401402DE9F04781460C46FDF76AFF4C
:102C500021490880214800880988084400B21F499A
:102C600008801D48B0F90000A9F802004846FEF7A8
:102C70007AFCB9F804001A4908800846007841B285
:102C80000220FEF71DF91548B0F9000060802046CB
:102C9000FEF769FCA08813490880A088A9F8000005
:102CA000B4F9000000F05EFB21F000460546B4F9DF
:102CB000020000F057FB21F0004107462A46334648
:102CC00000F0F8FB06D20020A9F8000003490880B4
:102CD00005494880BDE8F0876C0100206E010020A6
:102CE00070010020720100208000002010B540F229
:102CF0002551384800F0F0F800286AD040F22551FC
:102D0000344800F0CEF8334800F0A2F932490860A8
:102D1000FEF748F8314890F90000052857D2DFE85F
:102D200000F003121A343C002B48007840B22C49C2
:102D3000087008460078303840B22A4908700120EF
:102D40002649087044E024480068AA2802D10220DD
:102D5000224908703CE02048007840B222490870BF
:102D6000084690F900001F4991F90010884208D1E7
:102D70001D4890F900001D4908700320174908708C
:102D800002E003201549087022E013480068BB28C0
:102D900002D10420114908701AE00F48007840B2AF
:102DA00013490870084690F900000D4991F9001088
:102DB000884208D10E4890F900000C49087005209F
:102DC0000649087002E005200449087000E000BFD1
:102DD00000BF10BD004C0040D8000020FC000020C7
:102DE000FD00002001010020FE0000200001002065
:102DF000FF00002000B585B001210846FFF71EF84E
:102E00000121C804FFF70AF801211020FFF716F886
:102E10004FF48060ADF8000002208DF80200182009
:102E20008DF8030069461848FDF7DAFE4FF400609C
:102E3000ADF8000004208DF8030069461248FDF744
:102E4000CFFE4FF4165001900020ADF80800ADF809
:102E50000A00ADF80C00ADF810000C20ADF80E0023
:102E600001A90A4800F088F8012240F225510748DC
:102E700000F05CF80121054800F022F840210348E9
:102E800000F006F805B000BD00100140004C004005
:102E900001F40072B2F5007F00D100BFCA43028086
:102EA000704710B50022002340F66A14A14200D1F9
:102EB00000BF0A1201249440A3B2DC43048010BD79
:102EC00021B1828942F40052828104E082894DF668
:102ED000FF731A408281704770B5024600240023B8
:102EE0000025002040F66A16B14200D100BFC1F3B0
:102EF000421501F01F03012606FA03F3012D02D14A
:102F00009689334006E0022D02D1168A334001E053
:102F1000968A33400C12012606FA04F416883440CF
:102F200013B10CB1012000E0002070BDF0B50346E4
:102F3000002400260025002040F66A17B94200D17F
:102F400000BF1846C1F3421401F01F06012707FA1B
:102F500006F5012C01D10C3004E0022C01D1103017
:102F600000E014301AB107682F43076002E00768D9
:102F7000AF430760F0BD00002DE9F04786B005467D
:102F80000E460024A24600BFA1460027B08900B12A
:102F900000BF2F462C8A4CF6FF700440F088044393
:102FA0002C82AC894EF6F3100440B0883189084376
:102FB000718908430443AC81AC8A4FF6FF4004405A
:102FC000B0890443AC8201A8FEF76EFF1F48874218
:102FD00002D1DDF810A001E0DDF80CA0A88900F412
:102FE000004040B10AEBCA0000EB0A10316849000A
:102FF000B0FBF1F807E00AEBCA0000EB0A103168F9
:103000008900B0FBF1F86420B8FBF0F0040120095E
:10301000642101FB1089A88900F4004040B13220EE
:1030200000EBC900B0FBF1F000F00700044308E03A
:10303000322000EB09106421B0FBF1F000F00F002A
:1030400004432C8106B0BDE8F08700000038014041
:1030500001468888C0F308007047000030B501467B
:10306000244C6378DC1703EB5474E010214C637834
:10307000DC1703EB5474E410A3EBC404E2B21E4B60
:1030800003EBC0131B4C24781B5D01FA02F42343AD
:10309000194C04EBC014174D2D78635592B1164CA2
:1030A000431C04EBC313134C24781B5DC2F10804CA
:1030B00041FA04F42343104D441C05EBC4140D4D98
:1030C0002D7863550B4B1B78802B0DDB0023094CAF
:1030D000237023465B780833637023465B78402B6C
:1030E00007DB0023637004E0024B1B785B1C014C80
:1030F000237030BD840100208801002030B50546D2
:1031000000240BE0A5F1200101EB4101054A02EB8F
:103110004101085DFFF7A2FF601CC4B2062CF1DB81
:1031200030BD0000723A000830B5054600240DE0BD
:10313000A5F1200101EB4101064A02EB4101095DC5
:10314000C943C8B2FFF78AFF601CC4B2062CEFDB8C
:1031500030BD0000723A000830B50446002505E095
:1031600014F8010BFFF7E0FF681CC5B220780028B7
:10317000F6D1284630BD30B50446002505E014F8E8
:10318000010BFFF7BBFF681CC5B220780028F6D101
:10319000284630BD30380A2801D20120704700206F
:1031A00070472DE9F0410746884615460026002461
:1031B0001AE041463846FDF7F0FD0120FDF74AFCD4
:1031C00029463846FDF7E0FD28B1C4F1070101208A
:1031D00088403043C6B241463846FDF7E0FD012045
:1031E000FDF738FC601CC4B2082CE2DB3046BDE8B9
:1031F000F0810000FFF76EF8002476E00422012140
:103200003A48FFF7CEFF0446394804703948B0F910
:103210000030002211461046FEF728F83548B0F974
:10322000023000220C211046FEF720F83148B0F998
:103230000430002218211046FEF718F82E48B0F985
:103240000030002211463020FEF710F82A48B0F96D
:10325000023000220C213020FEF708F82648B0F991
:103260000430002218213020FEF700F82348B0F97E
:103270000030002224211046FDF7F8FF1F48B0F966
:103280000030002230211046FDF7F0FF1B48B0F956
:103290000230002230211046FDF7E8FF1848B0F94F
:1032A0000030002224213020FDF7E0FF1448B0F95F
:1032B0000230002230210846FDF7D8FF11480022D5
:1032C000182103685520FDF7D1FF0F4890F9003011
:1032D000002224215520FDF7C9FF0848B0F91E300F
:1032E000002230215520FDF7C1FF87E70010014083
:1032F000B5000020140000205C00002038000020F1
:1033000080000020DC000020FE00002008B5012124
:103310001020FEF793FD48208DF803000420ADF83F
:10332000000003208DF8020069460748FDF758FCAD
:1033300010208DF803000120ADF800006946024816
:10334000FDF74EFC08BD000000100140491058BFB9
:10335000C1F140415B1058BFC3F140438B42EFF3D2
:103360000080704710F0004248BF4042B0FA80F33E
:1033700010FA03F10AD0C3F11D0303F580634FEA8D
:10338000415002EB035202EBD12170474FF0000095
:103390007047000051EA030C17D41CF5801F58BF7A
:1033A000BCF5801F00F10680994218BF704708BF26
:1033B0009042704707D711F5801F58BF13F5801F43
:1033C00019D499427047894270471CF5801F08D56F
:1033D000BCF5801FF7D58B4218BF704708BF8242EB
:1033E00070474FF4001C1CEB410F38BF1CEB430F20
:1033F00001D28B42704770B500F008F89224490062
:103400004FF000514FF08053FFF7A0BF0EF1020EB6
:103410002EF0030E5EF8046B364205D4012A43EB0E
:10342000030515F5001F12D8012841EB010C1CF50E
:10343000001F0CD80ED14FEAD17C15F5001F0CEB04
:103440004C0C0CF1020C08BF4CEBD37C04E04FF0A9
:10345000080C01E04FEAD37C0CEB4C0526FA05F68C
:1034600006F00706B6F1040C06D20EEB860CBDE89A
:1034700070404CF0010C6047DFE80CF0090B0202D1
:103480004FF000414FF00000A1F5002170BD19463A
:103490001046012851EB010418BFD4F5001484BF75
:1034A000002001F0004170BD0808A0F500114FEAAE
:1034B0003101704753EA010C17D41CF5801F58BF27
:1034C000BCF5801F00F106808B4218BF704708BF13
:1034D0008242704707D713F5801F58BF11F5801F30
:1034E00019D48B4270479B4270471CF5801F08D54A
:1034F000BCF5801FF7D5994218BF704708BF9042AE
:1035000070474FF4001C1CEB430F38BF1CEB410FFE
:1035100001D2994270470FB40CBC03BCFFF76BBFDC
:1035200043004FEAD30C4FEA3C0C43401FBF400717
:103530000CF1605113F0FE4F70471CF0006F03D187
:1035400000200CF0004170470CF0004343EA50703B
:1035500010B540EACC0000F09AF900BF00000092DC
:103560004FEA0001FFF7A0BF4FF000414FF000000D
:10357000A1F500217047000090EA010F48BF81F0DB
:10358000004100F10882421A3CBF801A89184FEAB4
:10359000D0524FF07F4C1CEA410FA2EBD15318BF21
:1035A0009CEA026F00F03B804FF0004C4CEA002098
:1035B0004CEA012121FA03FC10EB0C0C1ED202F1A3
:1035C000FF325FEA1C2040EBC25038BF70471CF04E
:1035D0007F0F4FEA400C18BFBCF17F4F38BF7047D8
:1035E000C3F12003994008BF20F00100BCF17F4FD8
:1035F00038BF7047A0F1C04000F08FB94FEA3C00DF
:10360000000A40EBC25028BF1CF0FF0F4FEA400CED
:10361000E6D018BFBCF17F4F38BF7047EAE79CEA9D
:10362000026F05D010EA5C0F08BF00F00040704741
:1036300010B500F02CF900BF64FBBE3E401058BF2F
:10364000C0F14040491058BFC1F140418142EFF301
:103650000080704750EA010C00F113801CF5000F48
:1036600058BFBCF5000F01D48842704707D710F54A
:10367000000F58BF11F5000F15D4884270478942DA
:1036800070471CF5000F04D5BCF5000FF7D581423B
:1036900070474FF0807C1CEB400F38BF1CEB410F94
:1036A00001D28142704710B500F0F1F89224490030
:1036B0004FF000504FF08051FFF7C0BF41000B0E9C
:1036C000D3F19E0208D950F400034FEA032323FAF2
:1036D00002F048BF4042704710B500F0D8F800BF74
:1036E00049922480002070476FF0004282EA200057
:1036F0007047000010F0004148BF4042B0FA80F32C
:1037000010FA03F2C3F19D030BD051EAC35101EB50
:103710001220530638BF704700F1010008BF20F0A7
:103720000100704750EA010C00F113801CF5000FF6
:1037300058BFBCF5000F01D48842704707D710F579
:10374000000F58BF11F5000F15D488427047894209
:1037500070471CF5000F04D5BCF5000FF7D581426A
:1037600070474FF0807C1CEB400F38BF1CEB410FC3
:1037700001D28142704710B500F089F892244900C7
:103780004FF000504FF08051FFF758BF4FF47F0CBF
:103790001CEAD0121EBF1CEAD11392EA0C0F93EA66
:1037A0000C0F00F0478090EA010F48BF42F480728E
:1037B0004FF0004C4CEA00204CEA012102EB0302DE
:1037C000A0FB0113A2F50002002918BF43F001037A
:1037D0005B0028BF4FEA330342EB22425FEA132C1F
:1037E0004CEBC2502EBFBCEB436FB2F57C0F704761
:1037F0004FEA036CBCF1004F08BF20F00100B2F5A6
:103800007C0F38BF70470BD582F0FF0212F5803F66
:10381000C8BF704700F1C040D8BF00F000407047FB
:1038200000F5000C5FEA4C0C48BF7047B0F1C04097
:1038300000F073B890EA010F0CEAD11348BF42F4CC
:103840008072624538BF634504D280EA010000F00F
:103850000040704710B500F01AF800BF8900013E23
:1038600000F007B800F009B85FEA410C5FEA1C6C91
:1038700008D080EA010000F050B85FEA400C5FEA2F
:103880001C6CF6D14FF00040A0F5800070470EF19F
:10389000020E2EF0030E5EF8044B244204D44FEACD
:1038A0004102B2F17F4F11D84FEA4003B3F17F4F8D
:1038B0000CD80ED14FEAD07CB2F17F4F0CEB4C0C00
:1038C0000CF1020C08BF4CEBD17C04E04FF0080C6B
:1038D00001E04FEAD17C0CEB4C0324FA03F404F032
:1038E0000704B4F1040C06D20EEB840CBDE81040C2
:1038F0004CF0010C6047DFE80CF0070802024FF0C3
:103900000040A0F5800010BD0846420018BFD2F16B
:10391000807288BF00F0004010BDFF2141EAD05006
:10392000C005704751EA000C00F113801CF5000F30
:1039300058BFBCF5000F01D48142704707D711F57D
:10394000000F58BF10F5000F15D48142704789420F
:1039500070471CF5000F04D5BCF5000FF7D5884261
:1039600070474FF0807C1CEB410F38BF1CEB400FC1
:1039700001D28842704780EA010081EA000180EAB2
:103980000100FFF7F8BE000090EA010F48BF81F088
:1039900000413FF5F8AD421A04D882F00042A0EB96
:1039A000020011444FEAD0524FF07F4C1CEA410F05
:1039B000A2EBD15318BF9CEA026F4AD04FF0004CE3
:1039C0004CEA00204CEA012121FA03FCB0EB0C0C7C
:1039D0000FD412F0FE0F36D05FEA4C001DD5001256
:1039E00040EBC25038BF70471CF03F0F18BF704704
:1039F0000BE0A2F101025FEA1C2040EBC25038BF8D
:103A000070471CF07F0F18BF7047C3F12003994027
:103A100014BF401E20F00100704780084FEA1223B7
:103A200008BF7047B0FA80FCA2EB0C02CCF1280C66
:103A300060FA0CF093EA122F04BF00EBC2507047FB
:103A40004FEAC3707047130A5FEADC1008BF704783
:103A5000F6E79CEA026F04D010EA5C0F08BF002072
:103A6000704710B5FFF713FF40DFF63E81F00040CE
:103A700070470000000000000000004F0000000040
:103A80000700070000147F147F1400242A7F2A12E5
:103A900000231308646200364955225000000503D4
:103AA000000000001C224100000041221C00001404
:103AB000083E08140008083E0808000050300000C6
:103AC00000080808080800006060000000201008D6
:103AD0000402003E5149453E0000427F4000004242
:103AE00061514946002141454B31001814127F10A5
:103AF000002745454539003C4A49493000017109D4
:103B0000050300364949493600064949291E000087
:103B1000363600000000563600000008142241002E
:103B2000001414141414000041221408000201515E
:103B3000090600324979413E007E1111117E007F55
:103B40004949493E003E41414122007F4141221CFA
:103B5000007F49494941007F09090901003E414967
:103B6000497A007F0808087F0000417F410000205B
:103B700040413F01007F08142241007F4040404007
:103B8000007F0204027F007F0408107F003E414155
:103B9000413E007F09090906003E4151215E007F38
:103BA000091929460046494949310001017F0101AF
:103BB000003F4040403F001F2040201F003F403852
:103BC000403F006314081463000304780403006199
:103BD0005149454300007F4141000015167C1615F0
:103BE000000041417F000004020102040040404007
:103BF0004040000001020400002054545478007F2B
:103C00004844443800384444442000384444487F01
:103C100000385454541800087E090102000C525216
:103C2000523E007F080404780000447D40000020DC
:103C300040443D00007F102844000000417F4000C8
:103C4000007E020C027C007E0402027C00384444A8
:103C50004438007C1414140800081414187C007CE8
:103C60000804040800485454542000043F444020F1
:103C7000003C4040207C001C2040201C003C403088
:103C8000403C004428102844000C5050503C004454
:103C900064544C44000000000000000000000000DC
:103CA0000000000000001C7E7E1C000000000003DD
:103CB00003000000000E0E00000E0E0000000000C9
:103CC000000000000088FEFE88FEFE88000003035E
:103CD00000030300000C1E3363C684000001030EC2
:103CE0000E030100068FC96FB6988C000001000317
:103CF0000704070300ECFE125ECCC0400001030283
:103D0000020103020000000E0E000000000000008F
:103D1000000000000000F0FC0E020000000001079F
:103D20000E0800000000020EFCF000000000080E6B
:103D3000070100000020A8F870F8A820000000008B
:103D400000000000002020F8F82020000000000003
:103D50000000000000000000000000000000000B58
:103D60000F0700000020202020202000000000007D
:103D70000000000000000000000000000000000340
:103D800003030000000080E0781E06000006070123
:103D9000000000000000FCFEC21AFEFC000001034F
:103DA000020203010008080CFEFE000000000000F3
:103DB00003030000000C8EC2623E1C0000030302DD
:103DC00002020200008C8E2222FEDC0000010302AF
:103DD0000203010000C0FEBE80F8F8800000000071
:103DE00000030300003E3E2222E2C2000002020263
:103DF0000301000000F0F81E16F2E00000010302CB
:103E000002030100000282E27A1E060000000303A2
:103E10000000000000DCFE3262FEDC000001030254
:103E200002030100003C7E42C2FE7C00000002034F
:103E30000300000000000018181800000000000334
:103E40000303000000000018181800000000000B19
:103E50000F070000002070D88C0602000000000050
:103E6000010302000050505050505000000000006C
:103E7000000000000002068CD87020000002030140
:103E800000000000000C0E62721E0C000000000317
:103E900003000000FCFE0262F292FEFC010302023B
:103EA0000202020200F8FC4646FCF8000003030090
:103EB0000003030000FEFE2222FEDC0000030302DA
:103EC0000203010000FCFE02028E8C0000010302CE
:103ED0000203010000FEFE0206FCF80000030302DC
:103EE0000301000000FEFE22222202000003030262
:103EF0000202020000FEFE22222202000003030052
:103F00000000000000FCFE0242CECC0000010302D3
:103F10000203030000FEFE2020FEFE00000303005B
:103F200000030300000002FEFE0200000000020386
:103F3000030200000080800000FEFE00000103027A
:103F40000203010000FEFE20F8DE0600000303006D
:103F50000003030000FEFE00000000000003030257
:103F60000202020000FEFE087008FEFE00030300CD
:103F70000000030300FEFE183060FEFE0003030095
:103F80000000030300FCFE0202FEFC00000103022D
:103F90000203010000FEFE22223E1C00000303007B
:103FA0000000000000FCFE0202FEFC000001030213
:103FB000060F090000FEFE2262FE9C0000030300C3
:103FC00000030300000C1E3262C6840000010302DD
:103FD00002030100000202FEFE02020000000003D4
:103FE0000300000000FEFE0000FEFE0000010302D0
:103FF0000203010000FEFE0000FEFE0000000103BF
:1040000003010000007EFE807080FE7E000003033E
:10401000000303000086CE3870CE86000003030044
:1040200000030300001E3EE0E03E1E00000000030F
:10403000030000000082C262321E0E000003030271
:10404000020202000000FEFE0202000000000F0F4C
:104050000000000000061E78E08000000000000064
:104060000107060000000202FEFE00000000000042
:104070000F0F000000080C06060C080000000000EE
:104080000000000000000000000000000202020228
:1040900002020202000002060E08000000000000FA
:1040A000000000000080C84848F8F000000103024A
:1040B0000203030000FEFE0808F8F00000030302FC
:1040C0000203010000F0F8080818100000010302C4
:1040D0000203010000F0F80808FEFE0000010302E0
:1040E0000203030000F0F848487870000001030262
:1040F000020200000020FCFE222222000000030336
:104100000000000000F8FC0404FCFC0000080909A1
:10411000090F070000FEFE0808F8F0000003030086
:1041200000030300000808FBFB000000000202037C
:104130000302020000000404FDFD0000000808085E
:104140000F07000000FEFE40E0B818000003030067
:1041500000030300000202FEFE0000000002020352
:104160000302020000F8F808F808F8F00003030062
:104170000100030300F8F80808F8F000000303004A
:104180000003030000F0F80808F8F0000001030243
:104190000203010000F8F80808F8F000000F0F0211
:1041A0000203010000F0F80808F8F800000103021B
:1041B000020F0F0000F8F820101818000003030089
:1041C000000000000030784848C888000002020261
:1041D000020301000008FEFE0808080000000103B9
:1041E0000202020000F8F80000F8F80000010302E3
:1041F0000203030000F8F80000F8F80000000103D3
:104200000301000000F8F800F000F8F800000303D4
:10421000000303000018B8E0E0B818000003030032
:104220000003030000FCFC0000FCFC000808090D72
:1042300007030000000888C868381800000303025C
:10424000020202000040E0BC1E0200000000000765
:104250000F080000000000FEFE0000000000000F3C
:104260000F0000000000021EBCE040000000080F2C
:104270000700000060301030604060300000000037
:10428000000000004040E0E05040404000000000DE
:10429000010000000000000000000000000000001D
:1042A00000000000000000F80000000000000033E3
:1042B0003000000000100C06100C0600000000008A
:1042C0000000000040C07840C0784000043F040473
:1042D0003F040400007088FC08300000001820FF34
:1042E000211E0000F008F000E018000000211C036F
:1042F0001E211E0000F00888700000001E212324EB
:104300001927211010160E00000000000000000008
:1043100000000000000000E0180402000000000798
:104320001820400000020418E0000000004020189F
:1043300007000000404080F0804040000202010F72
:1043400001020200000000F0000000000101011F56
:1043500001010100000000000000000080B07000BA
:10436000000000000000000000000000000101014A
:1043700001010101000000000000000000303000D9
:1043800000000000000000008060180400601806B3
:104390000100000000E010080810E000000F1020ED
:1043A00020100F00001010F8000000000020203F37
:1043B00020200000007008080888700000302824C1
:1043C0002221300000300888884830000018202062
:1043D00020110E000000C02010F800000007042487
:1043E000243F240000F808888808080000192120CC
:1043F00020110E0000E0108888180000000F112026
:1044000020110E0000380808C83808000000003FDE
:10441000000000000070880808887000001C22213D
:1044200021221C0000E010080810E00000003122EA
:1044300022110F00000000C0C0000000000000308A
:1044400030000000000000800000000000008060DC
:10445000000000000000804020100800000102045D
:104460000810200040404040404040000404040444
:104470000404040000081020408000000020100800
:1044800004020100007048080808F0000000003035
:1044900036010000C030C828E810E00007182724C3
:1044A00023140B000000C038E0000000203C230271
:1044B0000227382008F8888888700000203F2020D4
:1044C00020110E00C0300808080838000718202006
:1044D0002010080008F808080810E000203F2020FD
:1044E00020100F0008F88888E8081000203F2020DE
:1044F0002320180008F88888E8081000203F2000D2
:1045000003000000C0300808083800000718202009
:10451000221E020008F808000008F808203F2101C8
:1045200001213F20000808F8080800000020203F73
:104530002020000000000808F8080800C0808080E3
:104540007F00000008F888C028180800203F2001DC
:104550002638200008F8080000000000203F202036
:104560002020300008F8F800F8F80800203F003F4D
:10457000003F200008F830C00008F808203F200065
:1045800007183F00E01008080810E0000F10202076
:1045900020100F0008F808080808F000203F21014B
:1045A00001010000E01008080810E0000F182424A2
:1045B00038504F0008F8888888887000203F200015
:1045C000030C3020007088080808380000382021CB
:1045D00021221C00180808F8080818000000203FD5
:1045E0002000000008F808000008F808001F20203C
:1045F00020201F000878880000C83808000007380D
:104600000E010000F80800F80008F800033C07005D
:10461000073C0300081868808068180820302C03C5
:10462000032C30200838C800C83808000000203F9C
:104630002000000010080808C8380800203826218B
:1046400020201800000000FE020202000000007F8F
:1046500040404000000C30C000000000000000019D
:104660000638C00000020202FE0000000040404088
:104670007F000000000004020202040000000000AD
:10468000000000000000000000000000808080802A
:104690008080808000020204000000000000000012
:1046A00000000000000080808080000000192422AB
:1046B00022223F2008F8008080000000003F1120E7
:1046C00020110E000000008080800000000E1120EC
:1046D00020201100000000808088F800000E1120CA
:1046E00020103F200000808080800000001F2222D8
:1046F00022221300008080F0888888180020203F44
:10470000202000000000808080808000006B949456
:104710009493600008F8008080800000203F210012
:1047200000203F2000809898000000000020203FDB
:1047300020200000000000809898000000C08080C9
:10474000807F000008F8000080808000203F240265
:104750002D302000000808F8000000000020203F55
:10476000202000008080808080808000203F20000A
:104770003F20003F8080008080800000203F21009B
:1047800000203F200000808080800000001F20204B
:1047900020201F00808000808000000080FFA1207A
:1047A00020110E000000008080808000000E11208B
:1047B00020A0FF80808080008080800020203F211A
:1047C00020000100000080808080800000332424CD
:1047D00024241900008080E0808000000000001F79
:1047E000202000008080000000808000001F20202A
:1047F00020103F20808080000080808000010E30EB
:104800000806010080800080008080800F300C034B
:104810000C300F0000808000808080000020312E4E
:104820000E312000808080000080808080818E702A
:104830001806010000808080808080000021302CDC
:104840002221300000000000807C020200000000F5
:10485000003F404000000000FF000000000000009A
:10486000FF0000000002027C800000000040403F8A
:104870000000000000060101020204040000000024
:10488000000000000400000800000000000000021A
:104890000001000010000000B848000800000020DF
:1048A000880100006C010008084900088801002008
:1048B000600A0000C8010008412D010203040470D1
:1048C0000A060708090204060814359A99993EA2B7
:1048D0003F162C01D4FE64239CFF5AE02559241175
:1048E0003CCDCCCC08492412141AEC2409464801CA
:1048F000380A2D012CC50AD7A33C0809166F12836C
:084900003A0C020B3F18014CB8
:0400000508000215D8
:00000001FF
